:100000000C94D3010C948A1B0C94F0010C94F00115
:100010000C94F0010C94F0010C94F0010C94F0019C
:100020000C94F0010C94F0010C94E8220C94BB2386
:100030000C94B41D0C94F0010C94F0010C94F0019C
:100040000C94F0010C94F0010C94F0010C94F0016C
:100050000C94F0010C946C1E0C94F0010C94F001C3
:100060000C94F0010C94F0010C94F0010C94F0014C
:100070000C94F0010C94F0010C94F0010C94F0013C
:100080000C94F0010C94F0010C94F0010C94F0012C
:100090000C94F0010C94F0010C94F0010C94F0011C
:1000A0000C94F0010C94F0010C94F00129001E0056
:1000B0001F002000210022002B0014001A0008005D
:1000C00015001700E10004001600070009000A00EF
:1000D000E0001D001B0006001900050000000000E4
:1000E0002F00300002512C00000000002A003500D3
:1000F0002B004A00230024002500260027002A00A8
:100100001C0018000C00120013002D000B000D0045
:100110000E000F00330034001100100036003700CD
:100120003800310028002C002E022E0000000000B4
:100130004D004C00E300E2000000000035021E020A
:100140001F02200221022202010001000100010021
:1001500001002F0001004A004B004E004D00260216
:100160000100010001000100010001000000000089
:100170000100460001000100000000000100010034
:1001800001000100230224022502260227024C005E
:1001900030005F006000610001002E0227025C0059
:1001A0005D005E002D003102010059005A005B0025
:1001B0002E002D020100010001006200000000007D
:1001C00001000100010001000000000045003A00AC
:1001D0003B003C003D003E00010001000100010029
:1001E00001002F0001005000520051004F00260274
:1001F00001000100010001000100010000000000F9
:1002000001000100010001000000000001000100E8
:10021000010001003F004000410042004300440053
:1002200030000100530049004700A8002702AC003D
:10023000AE00AB000100A9000100010001000100B7
:100240000100AA00010001002E00010000000000D2
:100250000100010001000100000000002C03440027
:1002600061006300740079006C002D004D00610096
:100270006E00750066006F0072006D00200028009F
:10028000350078003600290000000E03740073006A
:1002900068006F0072007400000004030904090282
:1002A0003B00020100A0FA09040000010301010063
:1002B0000921110100012240000705810308000106
:1002C00009040100010300000009211101000122BD
:1002D0007B000705820320000112010002000000DC
:1002E000084D44363501000102000105010902A153
:1002F0000185020901A10005091901290815002538
:100300000195087501810205010930093115812522
:100310007F95027508810609381581257F9501753D
:10032000088106050C0A38021581257F950175089C
:100330008106C0C005010980A101850319012AB702
:1003400000150126B700950175108100C0050C0944
:1003500001A101850419012AA002150126A0029518
:100360000175108100C005010906A101050719E00A
:1003700029E7150025019508750181029501750889
:1003800081010507190029FF150026FF0095067554
:100390000881000508190129059505750191029547
:1003A0000175039101C011241FBECFEFDAE0DEBF5B
:1003B000CDBF11E0A0E0B1E0E4E1FDE402C00590B2
:1003C0000D92A839B107D9F722E0A8E9B1E001C040
:1003D0001D92A53BB207E1F70E9424150C9431262B
:1003E0000C94000081E0089581E008950E94F401DA
:1003F000089508950E94F9010895A5E0B0E0E3E0B2
:10040000F2E00C949D2549835A8330919B018981A8
:100410009A81311119C0662399F0222389F00E9434
:100420001F09182F682F89819A810E94FB08698112
:100430007A81812F0E94C00F2596E3E00C94B925A4
:100440000E940D09182FF3CF0E941F0969817A813C
:10045000F1CFFC01262F408151816281738184811B
:100460000E94FD01089581E00895CF93DF93D82F76
:10047000C92F60E00E9429026D2F7C2F0E94FA0193
:10048000DF91CF9108950E94551108950E9459114E
:10049000089508950E94D6060E9449022FEF84E332
:1004A0009CE0215080409040E1F700C0000008959A
:1004B0000E944A020E94901E08950E944A020E94D1
:1004C000A11E08950F931F93CF93DF938C0161E0DA
:1004D0000E942902EC01B8010E94F601811106C0B8
:1004E00080E0DF91CF911F910F910895B801CE0167
:1004F0000E94971A8823A1F3B801CE010E94CB175E
:10050000882371F3B801CE010E94091A882341F3B0
:10051000F8018281882381F0CC35FDE5DF0729F1E0
:1005200078F4CF3DECE5DE07B9F0CB35FDE5DF072C
:10053000C9F0C115DC4569F0C8010E94F201D1CFB4
:10054000CD35DC0761F0C83ADD45B1F70E945D02A8
:10055000C7CF0E945802C4CF0E940E0EF7CF0E9450
:100560004F0DEACF0E94590DE7CF0E945D0DE4CFF9
:100570000E94911D0E94D50208950E94D9020E94F6
:10058000961D089508950E94C202089581E008957D
:100590000E94C60208950895CF93C82F0E94C302F7
:1005A0008C2F0E94C802CF91089580E00E94CC0257
:1005B00008950E94B11C0E94CC0208950E94B11CB3
:1005C00090919A01981721F080939A010E94CC0291
:1005D0000895ABE0B0E0EFEEF2E00C949E254F837F
:1005E000588769877A878B8761110E949A0C1E82CF
:1005F00085E0FE013796DE01119601900D928A95F5
:10060000E1F78C819D81892B61F449815A816B814D
:100610007C818D819E810E94BB0B2B96E2E00C9425
:10062000BA2589819A8189238F3F79F3CE0101967A
:100630000E9433028111E9CFF0CFFC0180819181CA
:100640000E9459090895CF93C82F8823C9F0823892
:10065000C9F40E94B11C81FD13C089E30E94500CB3
:100660000E94BB0C2FEF31EE84E0215030408040DF
:10067000E1F700C0000089E30E94580C0E94BB0C07
:10068000CF9108958338A1F40E94B11C80FDF8CF6A
:1006900083E50E94500C0E94BB0C9FEF21EE34E0DA
:1006A000915020403040E1F700C0000083E5E4CFE6
:1006B0008438A1F40E94B11C82FDE2CF87E40E943D
:1006C000500C0E94BB0C8FEF91EE24E081509040C3
:1006D0002040E1F700C0000087E4CECF8CEF8C0F04
:1006E000813AB8F48C2F0E9450198111C9CF6C2F18
:1006F00080910001909101010E941D1D882329F025
:100700008C2F0E94580C0E94BB0C8C2F0E94500C06
:10071000B5CF80E28C0F883048F4C77081E001C00B
:10072000880FCA95EAF70E947B0CA8CF8BE58C0F47
:10073000833038F42C2F2452330BC9010E94DF1C64
:100740009FCFE8E5EC0FE73150F4F0E0EE0FFF1F2C
:10075000E25DFE4F808191810E94F51C91CFCD3EDC
:1007600008F48ECF8C2F0E94A8150E947B1688CF8C
:10077000882309F455C0823879F40E94B11C81FFA6
:100780004FC089E30E94500C0E94BB0C89E30E9479
:10079000580C0E94BB0C0895833859F40E94B11C78
:1007A00080FF3EC083E50E94500C0E94BB0C83E595
:1007B000EECF843859F40E94B11C82FF31C087E427
:1007C0000E94500C0E94BB0C87E4E1CF9CEF980F75
:1007D000913AE8F290E2980F983050F4877091E0E7
:1007E00001C0990F8A95EAF7892F0E94810CD1CF19
:1007F0009BE5980F933028F490E080E00E94DF1C86
:10080000089598E5980F973128F490E080E00E94D1
:10081000F51C08958D3E20F00E9402160E947B1662
:1008200008951F93CF93DF93182FEB010E942303AA
:10083000209739F4812F0E94B803DF91CF911F9147
:1008400008958FE99FE00197F1F700C0000021971C
:10085000EFCF70E060E0893311F460E570E00E9452
:1008600011040895882321F00E947B0C0E94BB0C88
:100870000895882321F00E94810C0E94BB0C0895EA
:10088000A5E0B0E0E6E4F4E00C9496256C016D83FD
:100890007983FC011281F580F2948FE0F8220E94A6
:1008A000710CE82E8823B9F0E12E1123A1F0898183
:1008B000807F803421F08D81805E8830C8F0809107
:1008C000890282FF15C082E00E941E0D0E94710CF9
:1008D00091E0E82EE926898182958F70A82EB12CAF
:1008E0008C3008F06CC0F501ED5CF94D0C94882556
:1008F000E12CF1CF09810F70F981F07F11F00295A1
:10090000007F1123A1F0002361F08D81805E88308B
:1009100018F01D81111107C0802F0E947B0C0E94CE
:10092000BB0C8D8144C0802F0E948C0CF8CF8D8130
:100930000E94B803002309F442C08D81805E883094
:1009400018F01D81111104C0802F0E94810C03C07A
:10095000802F0E94920C0E94BB0C31C009810F7045
:100960002981207F203211F00295007F3D813323C1
:1009700081F0313009F465C0112309F46FC0FF2004
:1009800009F465C0F601858180FFCBCF8F70858328
:100990005EC08091890282FD34C0112359F000238A
:1009A00029F0802F0E947B0C0E94BB0C80E00E94EB
:1009B000230305C080E00E94B8030111C5CF88E081
:1009C000A81AB10894E0A916B10420F40E94B11C41
:1009D0000E94CC02EE2089F00E946D0C80FD0DC0BB
:1009E000F60112820E94670C0E94C407C6010E9491
:1009F00096060E94670C0E94EB072596EAE00C948D
:100A0000B225112389F0F11006C00E949D0C802BA5
:100A10000E943204D4CF81E0F812F7CF0E949D0CDF
:100A2000802B0E94A40CCBCFF11006C00E94B10C09
:100A3000802F0E943904C3CF91E0F91609F4BFCF8B
:100A4000F5CF112331F0E5E0EF1508F4B8CF802F92
:100A5000DFCFF4E0FF1508F4B2CFEACFFF2041F377
:100A60000D81093349F41FEF27EE33E01150204088
:100A70003040E1F700C000008D810E94B8039FCF95
:100A8000898186958695837069F0813009F097CFCA
:100A90008D8199819370111102C090E080E00E94D5
:100AA000F51C8DCF8D8199819370111102C090E05A
:100AB00080E00E94DF1C83CF8D81112329F00E94EA
:100AC000A8150E947B167BCF0E940216FACF89815F
:100AD000837009F050C0111172CF2D812295269597
:100AE0002770220F220F8D818F7090E0B0E0A0E080
:100AF000022E04C0880F991FAA1FBB1F0A94D2F7A9
:100B00000D8140E050E0BA0104FF0FC04FE050E01B
:100B100060E070E004C0440F551F661F771F2A95E0
:100B2000D2F7409550956095709519811695169558
:100B300013701D838A019B01082B192B2A2B3B2B39
:100B400009831A832B833C831D8169817A818B8180
:100B50009C81123051F0133059F0113019F00E947D
:100B60004C072DCF0E942A072ACF0E946E0727CF5D
:100B70000E94270724CF8695112311F08981817067
:100B8000882309F41CCF2D81229526952770220FEA
:100B9000220F8D818F7090E0B0E0A0E0022E04C0A3
:100BA000880F991FAA1FBB1F0A94D2F70D8140E03E
:100BB00050E0BA0104FF0FC04FE050E060E070E089
:100BC00004C0440F551F661F771F2A95D2F7409522
:100BD00050956095709519811695169513701D8323
:100BE0008A019B01082B192B2A2B3B2B09831A8383
:100BF0002B833C831D8169817A818B819C8112309A
:100C000051F0133059F0113019F00E945F08D7CE1F
:100C10000E943D08D4CE0E948108D1CE0E94960742
:100C2000CECE09810F700983112329F0802F0E94F5
:100C3000C4078D81EDCE8D810E94390489810E9487
:100C4000EB07BDCE0D81023F59F160F4003FC1F0CA
:100C5000013F89F0112309F44CC0F11062CE898163
:100C60008F7122C00D81033F11F1043F99F78091EC
:100C7000890282FD26C089818F71112301F314C07E
:100C8000112349F014E01F1508F499CE89818F7162
:100C90000E94160894CE25E02F1508F490CEF6CFCA
:100CA00089818F711111CBCF0E94C40788CE112387
:100CB00029F089818F710E94A90781CE0E94A30724
:100CC0007ECE112359F009810F710983802F0E9474
:100CD000C40763E089810E94000D71CE81E00E940B
:100CE0001E0D11E01F1508F06ACE82E00E941E0D55
:100CF00066CEF110B5CE89818F71A1CF0F931F936E
:100D0000CF93DF93EC01688179818A810E94660923
:100D10008C010E94A3080E942607B801CE010E9400
:100D20004004DF91CF911F910F910895CF93DF93EE
:100D3000EC018B819C81892B29F088819981892301
:100D40008F3F51F4DF91CF910895CE010E947E062E
:100D5000CE010E943502F6CFCE010E9462028111BF
:100D6000F4CF0E94710C882369F38A81882351F3A0
:100D70008091890282FFE6CF82E00E941E0DE2CFC1
:100D800090E080E00E94DF1C90E080E00E94F51C73
:100D90000E949A0C0E94BB0C0E9496160E947B1621
:100DA00008950E94600C0E94C00608950E94890C5C
:100DB0000E94D1060895282F92959F70963091F049
:100DC00060F4925F9F70923030F481E0203F81F0B8
:100DD00030F4283E30F080E008959A5FF3CF243F4E
:100DE000D1F7089581E0283EE0F3213FA1F7F9CF44
:100DF0000895FC01808191810E9459090E94DB06BF
:100E00000895A5E0B0E0E7E0F7E00C949E25259674
:100E1000E2E00C94BA25A6E0B0E0E1E1F7E00C9442
:100E20009E252696E2E00C94BA2508950E941507A7
:100E300008950E9416076093CD017093CE018093B0
:100E4000CF019093D0010E94C006089508950E949A
:100E500019070895A4E0B0E0E0E3F7E00C949E25C4
:100E600069837A838B839C838091CD019091CE019D
:100E7000A091CF01B091D00129813A814B815C8151
:100E8000282B392B4A2B5B2BCA01B9010E94190769
:100E90002496E2E00C94BA25A4E0B0E0E2E5F7E0A5
:100EA0000C949E2569837A838B839C838091CD01EA
:100EB0009091CE01A091CF01B091D00129813A81CA
:100EC0004B815C81282339234A235B23CA01B90162
:100ED0000E9419072496E2E00C94BA25A4E0B0E041
:100EE000E4E7F7E00C949E2569837A838B839C83E7
:100EF0008091CD019091CE01A091CF01B091D00110
:100F000029813A814B815C81282739274A275B2731
:100F1000CA01B9010E9419072496E2E00C94BA258F
:100F20000E94150708950E94900708950E94930754
:100F30006093C9017093CA018093CB019093CC0157
:100F40000E94C006089560E070E0CB010E94960701
:100F50000895A4E0B0E0EFEAF7E00C949C2541E0AE
:100F600050E060E070E08A019B0104C0000F111F97
:100F7000221F331F8A95D2F7C901B8010E94960734
:100F80002496E4E00C94B825A4E0B0E0EAECF7E0A5
:100F90000C949C2541E050E060E070E004C0440FF8
:100FA000551F661F771F8A95D2F78091C9019091CE
:100FB000CA01A091CB01B091CC018A019B01082B01
:100FC000192B2A2B3B2BC901B8010E9496072496A6
:100FD000E4E00C94B825A4E0B0E0E1EFF7E00C9475
:100FE0009C2541E050E060E070E004C0440F551FD4
:100FF000661F771F8A95D2F740955095609570953A
:101000008091C9019091CA01A091CB01B091CC010E
:101010008A019B01082319232A233B23C901B80114
:101020000E9496072496E4E00C94B825A4E0B0E072
:10103000ECE1F8E00C949C2541E050E060E070E0C9
:1010400004C0440F551F661F771F8A95D2F7809101
:10105000C9019091CA01A091CB01B091CC018A0144
:101060009B01082719272A273B27C901B8010E949D
:1010700096072496E4E00C94B825A4E0B0E0E3E4FD
:10108000F8E00C949E2569837A838B839C838091FE
:10109000C9019091CA01A091CB01B091CC012981E5
:1010A0003A814B815C81282B392B4A2B5B2BCA015F
:1010B000B9010E9496072496E2E00C94BA25A4E0B8
:1010C000B0E0E5E6F8E00C949E2569837A838B8393
:1010D0009C838091C9019091CA01A091CB01B091EC
:1010E000CC0129813A814B815C81282339234A2311
:1010F0005B23CA01B9010E9496072496E2E00C9492
:10110000BA25A4E0B0E0E7E8F8E00C949E256983F6
:101110007A838B839C838091C9019091CA01A091AD
:10112000CB01B091CC0129813A814B815C81282788
:1011300039274A275B27CA01B9010E9496072496DE
:10114000E2E00C94BA2508959B01677091E001C01C
:10115000990F6A95EAF763E0369527956A95E1F766
:1011600065E0629FF001639FF00D1124E40FF51F0D
:1011700050E040E0682F70E08191DF0111979B0102
:10118000042E02C0369527950A94E2F72170219526
:101190002827292328272C934F5F5F4F453051057F
:1011A00059F708959C01982F977083E036952795FD
:1011B0008A95E1F785E0829FF001839FF00D11246D
:1011C000E60FF71F50E040E080E0219130E0092E6B
:1011D00002C0369527950A94E2F721703327042E32
:1011E00001C0220F0A94EAF7822B4F5F5F4F453010
:1011F000510559F70895282F862F9C3068F4263022
:1012000058F4622F70E026E0929F600D711D11244A
:101210004CE951E00E94A4080895292F9C3068F4FD
:10122000863058F490E06CE971E036E0239F800D41
:10123000911D11240E94D208089580E00895B0E025
:10124000A0E0E5E2F9E00C9497258C01C090C9017B
:10125000D090CA01E090CB01F090CC018091CD01FB
:101260009091CE01A091CF01B091D001C82AD92A86
:10127000EA2AFB2ACFE1D0E0BC2ED701C6010C2E12
:1012800004C0B695A795979587950A94D2F780FDE7
:1012900009C0219788F7B12C8B2DCDB7DEB7E9E0D7
:1012A0000C94B325B8018C2F0E94DA0F019789F3B3
:1012B000F3CFCF93DF93D82FC92F0E941F096D2F33
:1012C0007C2F0E94DA0FDF91CF9108951F93CF9367
:1012D000DF93162FD72F90919B01992341F0862FF2
:1012E000972F0E945909DF91CF911F91089588236C
:1012F00081F0862F972F0E941F09C82F682F812FFA
:101300009D2F0E94FB08612F7D2F8C2F0E94DA0FEA
:10131000EACF862F972F0E940D09C82FF4CF1F9375
:10132000CF93DF93E091D10116E08091D2018E132B
:1013300004C0DF91CF911F910895CE2FD0E01E9F62
:10134000F0011124ED52FE4F408151816281738181
:10135000848195810E940B07FE013196E770E5CFED
:1013600040910302509104026091050270910602BF
:1013700080910702909108020E940B070895E09166
:10138000D1019091D20156E0E91302C080E00895A6
:101390002E2F30E05E9FF0011124ED52FE4F71813F
:1013A000761306C07081781303C07281741304C071
:1013B000F9013196E770E8CF81E008951F93CF934C
:1013C000DF9380910802807F09F049C08091050277
:1013D000882309F444C08091D101C091D201609169
:1013E000030270910402A0910602B0910702D62F69
:1013F000D72316E0C81799F190E0109711F0DF3F5E
:1014000019F401968770F6CF189F9001199F300D3F
:101410001124F901ED52FE4F41814713F2CF408173
:101420004613EFCF42814111ECCF438154814A1BD7
:101430005B0B483C510528F7809108028F70806152
:1014400080930802F901E852FE4F80818F7080611D
:10145000808383E092E00E9496060E948F09DF91CC
:10146000CF911F910895ABE0B0E0E9E3FAE00C946E
:1014700094258C0185E0F801DE01179601900D920C
:101480008A95E1F7D8011296EC90129783E0A82E86
:1014900082E0B82E40910602509107024115510595
:1014A00009F44AC19091030220910402822F8923FA
:1014B0008F3F09F441C1CC901196DC90119713969F
:1014C0008D909C901497F0900502F401E41BF50BAD
:1014D000FF2009F4E0C080910802382F307FE83CFB
:1014E000F10508F0B3C031117EC0FE2CD21217C036
:1014F0009C1115C0E11013C08F70806180930802A9
:101500000E94B009C5010E94960680910802D80188
:1015100015968C938F2D2B96ECE00C94B0258114AE
:10152000910429F08D2D8C218F3F09F021C180E09D
:1015300080FF15C04E2D6D2D8C2D0E94BF09882374
:1015400071F083E092E00E94960686E0E3E0F2E02C
:10155000DF011D928A95E9F70E94B00942C081140B
:10156000910429F08D2D8C218F3F09F0FEC080E081
:10157000B82FB170BB2E80FF2CC04E2D6D2D8C2D41
:101580000E94BF09A82E811124C0CF82D8868F81E6
:1015900098850E945909292F22952F70903248F082
:1015A000225F2F70223068F0C8010E949606AB2C93
:1015B0000EC09F7011F0882351F0805E883038F0A3
:1015C000F3CF9F70D1F3F8019581907FB1F7FA2C9A
:1015D000A1CFEE2009F49ECF809108028160809314
:1015E0000802F12C97CFD21205C09C1103C0EE2047
:1015F00009F46DC0C8010E94F906882319F1EE2094
:1016000009F180910802803270F02091030230913C
:1016100004023A8329831B829D828C828E83CE01B1
:1016200001960E94960686E0F801A3E0B2E00190E0
:101630000D928A95E1F70E94DE090E94B009FF240D
:10164000F39468CFC8010E949606F9CF311112C0F9
:10165000782D9B868A86A6016E2D8B850E940107B8
:1016600083E092E00E94960686E0F50111928A9549
:10167000E9F772CFD212BECF9C11BCCFE110BACF26
:1016800015968C93C8010E94960686E0F50111928A
:101690008A95E9F73FCFE83CF10508F03FC0FE2C02
:1016A000EE2081F2D2122CC09C112AC08091080237
:1016B00080FD1DC0982F907FD1F015968C931597C3
:1016C000903F39F0982F907F905F8F70892B1596FF
:1016D0008C93C8010E94960686E0F801A3E0B2E070
:1016E00001900D928A95E1F70E94B00913CF86E030
:1016F000F801A3E0B2E001900D928A95E1F70ACFDC
:10170000C8010E94F90681118ECF80910802816084
:1017100080930802C8010E949606FCCE782D9B8615
:101720008A86A6016E2D8B850E94010786E0F50151
:1017300011928A95E9F7D8CFEE2009F483CFC8013A
:101740000E94F906F82E882309F47CCF86E0F80180
:10175000A3E0B2E001900D928A95E1F783E092E078
:101760000E941D030E94DE09BFCF81E08E2500CFBD
:1017700081E08E25DDCEACE0B0E0E1ECFBE00C9446
:101780009D254F83588769877A878B879C87CE01F1
:1017900007960E94330A882369F08A859B85892BE6
:1017A00039F04F815885842F85238F3F09F071C010
:1017B00016E065C086E0FE013796DE0111960190C5
:1017C0000D928A95E1F76A857B856115710581F334
:1017D0005F814885842F85238F3F51F32091D2016B
:1017E00030E0C901019687709927E091D101E8178F
:1017F000190671F40E94D6061092D2011092D101FE
:1018000086E0E3E0F2E0DF011D928A95E9F7D0CFB0
:1018100059834A837D836C8396E0929FD001939F86
:10182000B00D1124AD52BE4FFE01319601900D92C4
:101830009A95E1F78093D2010E948F09B9CF819FD9
:10184000C00111248D529E4F0E94330A8823E9F073
:10185000E091D1011E9FF0011124ED52FE4F408115
:10186000518162817381848195810E940B078091EF
:10187000D10190E00196877099278093D1018091E2
:10188000D1019091D2018913DACF2C96E3E00C9428
:10189000B92569857A858B859C850E940B0788CF41
:1018A000682F80910001909101010E94571D0895B9
:1018B000682F80910001909101010E945A1D0895A6
:1018C00080910001909101010E945D1D0895809119
:1018D00011028595859585950895809111028770EF
:1018E000089590911102977081E009F480E00895C5
:1018F00080911C02089590911C02982B90931C02D9
:101900000895982F909580911C02892380931C0242
:10191000089510921C02089590911B02982B9093A9
:101920001B020895982F909580911B028923809324
:101930001B02089510921B020895809112020895CF
:1019400008950E94A00C08959091890292FF08C00A
:1019500090911202981721F0809312020E94A10C1C
:10196000089580911202882329F01092120280E0DB
:101970000E94A10C0895CF93DF93E0910001F091B4
:10198000010180911C028083E0910001F09101012E
:10199000808190911B02892B808390911202992360
:1019A00081F0E0910001F09101018081892B808319
:1019B00080910001909101010E940B1D81110E94F4
:1019C000B10CC0910001D091010148E050E069E004
:1019D00072E0CE010E94D925892B59F088E0FE01E2
:1019E000A9E0B2E001900D928A95E1F7CE010E9444
:1019F000C51CDF91CF91089508950E94FC0C0895B5
:101A00009091890292FF11C098E0899F9001112462
:101A1000622B609311020E94C40780911102859588
:101A2000859585950E94FD0C08950E94C407089530
:101A30001092110280E00E94FD0C08959091110215
:101A40008095892380931102282F277091F4282FE5
:101A5000082E000C330B9217130659F0909189024F
:101A600092FF07C08595859585950E94EB070E949A
:101A7000180D08959091890292FB222720F92817CA
:101A800069F080FB92F9909389028091880290918D
:101A900089020E94840D82E00E941E0D08958091AB
:101AA000890282FB882780F991E089270E943A0DFC
:101AB000089581E00E943A0D089580E00E943A0D59
:101AC000089590E080E00E94F7259C0181E0283E87
:101AD0003E4F09F080E0089582E090E00E94EF25FB
:101AE000089583E090E00E94EF250895CF9384E06D
:101AF00090E00E94EF25C82F82E290E00E94EF253F
:101B0000982F8C2FCF910895CF93682FC92F84E001
:101B100090E00E94FD256C2F82E290E00E94FD255E
:101B2000CF910895AB01BC018FE090E00E940F2699
:101B30000895AB01BC0183E190E00E940F26089557
:101B400060E070E0CB010E94990D089560E070E0C4
:101B5000CB010E94920D0E94A00D089568EE7EEFC9
:101B600090E080E00E941B2660E082E090E00E940E
:101B7000FD2560E083E090E00E94FD251092CD01FC
:101B80001092CE011092CF011092D00160E084E05B
:101B900090E00E94FD2564E082E290E00E94FD2535
:101BA00060E085E090E00E94FD2560E086E090E046
:101BB0000E94FD256FEF87E090E00E94FD2540E048
:101BC00050E0BA0188E090E00E940F2660E08DE0CE
:101BD00090E00E94FD2540E050E0BA0188E190E0ED
:101BE0000E940F2660E087E190E00E94FD2540E022
:101BF00050E0BA018CE190E00E940F2670E060E0B6
:101C000080E290E00E941B2640E050E0BA0188E1AB
:101C100090E00E940F260E94A60D08950E94AE0D2E
:101C20000895682F8EE090E00E94FD2508950E949F
:101C3000201E60932D0270932E0280932F029093AA
:101C400030026093290270932A0280932B029093B2
:101C50002C020895089508950E942B0E089508956A
:101C60000E942F0E08958FE191E10E94A71C0E940F
:101C70002A0E0E942C0E08950E940B1308950895B9
:101C800008950E943F0E0E94400E08950E94221166
:101C90000E94CB0208950E940B1E0E94BA100E945F
:101CA00026130E946B120E94460E0E94B3170E94D8
:101CB00030130E94300E0895A5E0B0E0E2E6FEE0A9
:101CC0000C9495250E948E12D82E81110E94170E19
:101CD0008DE1A82E82E0B82E10E000E0902E802F3B
:101CE0000E945C11F82EF501E1905F01E816B9F150
:101CF0008091310281FD0E9462118E2D8F25C12CB1
:101D0000EE24E394982F9E2129F10E943C0E882313
:101D100099F0C9829A82FE2081E009F480E08B83E9
:101D20000E94141E8160782F9D838C8349815A8183
:101D30006B818D810E94E902F801E35EFD4F808195
:101D4000E826E08281E0D11001C080E02596EBE03A
:101D50000C94B125C394EE0CF6E0CF12D3CF0F5FF5
:101D60001F4F0C30110509F0B9CF8FEF89838A839B
:101D70001B820E94141E8160782F9D838C83498171
:101D80005A816B818D810E94E902DCCF0E945C0E3A
:101D90000E940B130E94B7160E94DE020895CF9393
:101DA000DF930E94DF0FEC01811522E5920708F016
:101DB00062C0811531E5930708F0B5C0883E9105F2
:101DC00018F5803E9105B8F5883A910570F4853A8A
:101DD000910508F0A2C08130910569F10497813A1C
:101DE000910548F1D0E0C0E026C0885A9109479794
:101DF000C8F7C85AD0E0CC0FDD1FC45ADE4F099097
:101E0000D881C02DD46417C0811540E59407B8F47B
:101E1000C11580E4D80708F083C0CF3FD10509F091
:101E200028F4CD3ED105F0F2D06505C0CE019A95DB
:101E300081159F41B8F6CE01DF91CF910895F4E06E
:101E400096958795FA95E1F783702C2F2695269520
:101E5000237040E2249F90011124382B8C2F837033
:101E6000C1E0D0E002C0CC0FDD1F8A95E2F7C22BA3
:101E7000D32BDC68E0CFC11586E5D80730F5C11556
:101E800095E5D90708F063C0C11524E5D207C0F471
:101E90009C2F969596959E0123703327C115D345A7
:101EA00008F046C0C1E0D0E002C0CC0FDD1F2A958B
:101EB000E2F720E2929FC0011124C82BD92BD9CF81
:101EC000DC2FCC27C46FD06AB6CFC1153AE5D30753
:101ED00088F4C11549E5D40708F044C0CE019855EF
:101EE0008F3F910511F008F07DCFDC2FCC27C06F1C
:101EF000D06AA1CFCE0190568115904208F072CFE2
:101F00008D2F8F710E94771090E0982F8827882757
:101F10009F719C012C2BE90123C0A497D0648BCF27
:101F2000DF70D06A88CFD82FCC27C16FD06A83CF1B
:101F3000C1E0D0E002C0CC0FDD1F2A95E2F730E20D
:101F4000939FC0011124C82BD92BDA6874CF8C2F32
:101F50000E947710C82FD0E0DC2FCC27CC27DF7170
:101F6000D06269CF8C2F8F700E94771034E0D695A5
:101F7000C7953A95E1F7CF70DC2FC82FD0695BCFBA
:101F80007C30A8F4663098F4E62FF0E096E0799F74
:101F9000E00DF11D112498E4899FE00DF11D11243D
:101FA000EE0FFF1FE455FF4F85919491089580E057
:101FB00090E008950E94C00F0E94CF0E0895803EC9
:101FC000910599F1C8F48133910509F476C048F47C
:101FD0008932910509F46AC08A32910509F474C006
:101FE000089589339105D1F082389105B9F0853390
:101FF000910509F454C00895843E910599F138F48F
:10200000823E9105F9F0833E910509F10895863EDF
:10201000910599F1873E9105B9F1089520918802C3
:102020002370A1F080EE90E008952091880220FDB9
:1020300052C03091890230FF09C024FF4FC090E0A8
:1020400080E004C02091880222FDF7CF08952091FE
:10205000880222FD46C03091890230FDE3CF24FF83
:10206000F5CFEDCF2091890221FFF0CF809188023A
:1020700084FDE5CF87EE90E008952091880223FF4C
:10208000E5CF24FDDCCFF6CF2091880223FD2CC0C4
:102090003091890231FFE3CF84EE90E008952091E2
:1020A000880225FFD3CF89E290E00895209188022D
:1020B00025FFCCCF85E390E008952091880226FF8C
:1020C000C5CF8AE290E008952091880226FFBECF16
:1020D00081E390E0089589E390E0089583EE90E035
:1020E000089582EE90E0089586EE90E00895909134
:1020F000880292FF06C0282F28712830F9F4877FC4
:10210000846093FF06C0282F28712831F1F4877E60
:1021100084612091890220FF06C0382F3871383041
:10212000D9F4877F816021FF06C0282F28712831CC
:10213000D1F4877E816194FD877E0895282F2471D4
:102140002430F9F68B7F8860DCCF282F247124316E
:1021500001F78B7E8861DDCF382F3171313019F76F
:102160008E7F8860E0CF282F2171213121F78E7E6C
:102170008861E1CF1092840210928502109286024B
:10218000109287020895CF92DF92EF92FF92CF9341
:10219000DF9300D000D0CDB7DEB76B017C010E9489
:1021A0000B1381110EC00E94201EC61AD70AE80A1E
:1021B000F90AC0928402D0928502E0928602F092DF
:1021C00087020F900F900F900F90DF91CF91FF90AB
:1021D000EF90DF90CF900895A4E0B0E0E2EFF0E15F
:1021E0000C949E250E940B13882371F00E94201EE0
:1021F00069837A838B839C8369817A818B819C81BB
:102200002496E2E00C94BA250E94201E69837A830A
:102210008B839C838091840290918502A091860299
:10222000B091870229813A814B815C81280F391F47
:102230004A1F5B1F29833A834B835C83DDCF80E099
:1022400008950895A4E0B0E0E8E2F1E10C949E2541
:102250000E94610D811102C00E940E0E0E946C0D41
:10226000809331020E94760D9093890280938802B8
:102270000E9421110E94710D282F30E050E040E0B3
:10228000CA01B9010E9427078091C9019091CA0132
:10229000A091CB01B091CC01BC01CD010E9493076C
:1022A0002496E2E00C94BA2508950E9454110895F2
:1022B00008950E9458110895E82FF0E0E956FD4F67
:1022C00080810895089580EA8A95F1F7089500C005
:1022D00008950E946311089508950E946C11089555
:1022E000EF92FF921F93CF93DF9300D000D000D0E6
:1022F000CDB7DEB70E940B13182F6091A30288237D
:1023000009F44AC01A821982FE01339684E0DF0183
:102310001D928A95E9F7862F90E032977F01BF01E1
:1023200089569D4F0E943E138823F9F080918A02BE
:1023300090E046E050E0B70189569D4F0E94D925B4
:1023400021E020933202892BD9F410E00E9446024A
:10235000812F26960FB6F894DEBF0FBECDBFDF915A
:10236000CF911F91FF90EF900895809132028823C2
:1023700061F386E0D7011D928A95E9F71092320247
:10238000A0918A02B0E0A956BD4F86E0F701019006
:102390000D928A95E1F7DACF70E069567D4F809112
:1023A0008A0290E089569D4F0E94C9130E946D11C8
:1023B000CFCFF894E82FE295EF70F0E041A18F7055
:1023C00021E030E0B90102C0660F771F8A95E2F77D
:1023D000CB01962F9095942391A392A1892B82A350
:1023E00078940895CF93DF93C0E9D1E089918F3F2E
:1023F00011F00E94D91181E0C639D807B9F7CAE8AF
:10240000D1E089918F3F11F00E94D91181E0C0394C
:10241000D807B9F7DF91CF910895B0E0A0E0E3E1EC
:10242000F2E10C949825EC01D62E062F10E0C8019D
:1024300080579E4F7C01FC0120812F3F09F444C04E
:10244000F894E22FE295EF70F0E031A12F7081E077
:1024500090E001C0880F2A95EAF7932F982B91A35B
:1024600092A18095892382A378940E946711EAE85B
:10247000F1E031E0C12C21912F3F59F1A22FA2951B
:10248000AF70B0E090968C9190E02F7002C095955F
:1024900087952A95E2F780FD1CC0832FC82A330F49
:1024A00081E0E039F80739F7F70180818F3F11F0BB
:1024B0000E94D91161E0C11001C060E08D2D0E9421
:1024C0006911C00FD11FC882CDB7DEB7E8E00C9408
:1024D000B42580E0E3CF809102018091020196E073
:1024E000811190E09093A30286E0891B80938A0279
:1024F0000E94F2118CE0E7E9F2E0DF01982F1D92D3
:102500009A95E9F7EBE8F2E0DF011D928A95E9F789
:1025100086E00E94D5120E9443020895ACE0B0E02C
:10252000E4E9F2E10C949C251A821982FE013396AB
:102530008AE0DF011D928A95E9F710E0612FCE0154
:1025400001960E940D121F5F1630C1F74CE050E05B
:10255000BE016F5F7F4F8BE892E00E94D9258C010E
:1025600021E0892B09F420E00115110549F08CE0E8
:10257000FE013196ABE8B2E001900D928A95E1F749
:102580006091A30270E069567D4F46E08BE892E0CF
:102590000E94D61281E090E00115110511F40E940D
:1025A00070112C96E4E00C94B8250895FF920F93D7
:1025B0001F93CF93DF93F82E092F162FD72FC42FF9
:1025C000222349F081E0809335020E94141E9093EB
:1025D000340280933302809135028823A1F08091E8
:1025E0003302909134020E943D1E059760F0EF2D5A
:1025F000F02FA12FBD2FCE0FDF2FD11DEC17FD0720
:1026000039F410923502CDB7DEB7E5E00C94B7256A
:1026100081918D93F3CF80913802811107C00E9480
:102620006725882351F081E08093380281E0909102
:102630003802913009F080E0089582E080933802FA
:102640000E946225F3CF0E940B1308950E9423136A
:10265000809302010E940B1381110E94761308954A
:102660000E940B13811102C00E947913089581E02A
:10267000909139029A3008F080E008950F931F93EB
:10268000CF93DF93EC01162F072F809139028A3008
:10269000C0F4612F702FCE010E94C613C82F811184
:1026A00022C0809139028F3FB9F40E94141E90938A
:1026B0003702809336028C2FDF91CF911F910F91BB
:1026C000089580913602909137020E943D1E843F0A
:1026D0009140F8F6C0E0EFCF8F5F809339028A30E7
:1026E00020F7C1E0E8CF10923902E5CF0E94441BE9
:1026F00008950E94471B0895B0E0A0E0E2E8F3E1EE
:102700000C949825FA0169017801C82F880FDD0B18
:102710003097B1F0DE0193E0AA0FBB1F9A95E1F765
:10272000AD5FBE4F11968D919C911297865C9D4F27
:102730004C9150E0E417F50708F4AF010E94E6253C
:10274000CE010E94311C182F8823D1F0E114F1042E
:10275000B9F083E0CC0FDD1F8A95E1F7FE01ED5F54
:10276000FE4F438150E0E416F50608F4A701CD5F63
:10277000DE4F6C817D81665C7D4FC6010E94E6253F
:10278000812FCDB7DEB7E8E00C94B4250E94C714C2
:1027900008950E94E0140895A8E0B0E0E2EDF3E1AE
:1027A0000C949C258091530290915402A091550263
:1027B000B0915602BC01CD010E944C1E11E064365E
:1027C00071058105910520F10E94EC10DC01CB011F
:1027D0000296A11DB11D89839A83AB83BC8310E04F
:1027E00000E030E020E044E050E0BE016F5F7F4F4A
:1027F00082E00E947C13182F882351F00E94201E33
:102800006093530270935402809355029093560242
:10281000812F2896E4E00C94B825B0E0A0E0E3E135
:10282000F4E10C949625F82EE92ED62EC72E8A01B7
:102830000E943713AA24A394B12C882319F08AE0AC
:10284000A82EB12CC1E0D0E06D2D7C2D8F2D9E2DBA
:10285000F8010995811104C02196AC16BD062CF42F
:10286000CDB7DEB7EAE00C94B225CC9F9001CD9FA6
:10287000300D300D112490E080E045E34A95F1F7EA
:102880000000019682179307C1F7DECFABE0B0E0FE
:10289000ECE4F4E10C9496257B01A0909601B090B5
:1028A000970101E010E09E01295F3F4F50E040E0BA
:1028B00070E060E080E00E947C13182F882309F408
:1028C0004EC065018FEFC81AD80A80914F029091CF
:1028D0005002A0915102B0915202BC01CD010E9460
:1028E0004C1E688779878A879B87643671058105C6
:1028F000910568F106E010E09E012F5F3F4F50E028
:1029000040E070E060E081E00E947C13082F66E008
:1029100070E0C6010E94B41711E09F81981310E087
:10292000102341F10E94201E60934F0270935002C9
:10293000809351029093520286E0FE013196A9E401
:10294000B2E001900D928A95E1F711E013C066E0C4
:1029500070E0C6010E94B4179F818913CBCF86E037
:10296000F5013196DE01119601900D928A95E1F7FD
:102970001111E2CF86E0E9E4F2E0D70101900D9277
:102980008A95E1F7812F2B96EAE00C94B2250F93FC
:102990001F93CF93DF93D82FC92F8B0146E454E1C7
:1029A0000E940D14882339F04CEC53E1B8018D2FAF
:1029B0009C2F0E940D14DF91CF911F910F910895CC
:1029C0000F931F93CF93DF93FB01C0919601D0919A
:1029D0009701CE01019626E0DC0101900D922A9527
:1029E000E1F766E070E00E94B41788836F81788514
:1029F00089859A85009145021091460220914702EF
:102A000030914802601771078207930751F0609375
:102A100045027093460280934702909348020E94B9
:102A2000C310DF91CF911F910F9108950E94442010
:102A30000E944B0E0E94512008950E9456200E9431
:102A4000C60E0E94702008950E94AD1D0E942A208B
:102A50000E94330E0E9416150E941D150E94410E01
:102A6000FBCF80915F0280FF0DC060911F0170E07D
:102A7000660F771F6038710570F56115710569F192
:102A8000862F089581FF07C060911F0184E0689F31
:102A9000B0011124EFCF60911F0182FD0AC0809127
:102AA0005E028823A9F020911E0160911F01821708
:102AB00010F088E0ECCF869FC001112433E0880F2E
:102AC000991F3A95E1F7622F70E00E947425D2CFEA
:102AD00068E070E0D5CF8FE7089581E00895809198
:102AE0005F0280FF0CC060911C0170E075956795D6
:102AF000759567956115710549F1862F089581FFD8
:102B000006C060911C0170E075956795F3CF6091E8
:102B10001C0182FD0BC090915D029923A1F0609190
:102B20001B0180911C01961738F0682F70E0603807
:102B3000710500F38FE70895899FC001112470E0AB
:102B40000E947425F4CF61E070E0D7CF81E0089552
:102B50008D3E31F40E943115819580936302089572
:102B60008E3E19F40E943115F8CF8F3E31F40E9449
:102B700031158195809362020895803F19F40E9477
:102B80003115F8CF893F29F40E946F1580936402B4
:102B900008958A3F21F40E946F158195F7CF8B3FEE
:102BA00031F40E946F1581958093650208958C3FE2
:102BB00019F40E946F15F8CF9FE0980F983070F4C9
:102BC000815F990B21E030E001C0220F8A95EAF77E
:102BD00080916102822B8093610208958D3F31F4D0
:102BE00080915F02816080935F0208958E3F21F49F
:102BF00080915F028260F7CF8F3FB9F780915F02CB
:102C00008460F1CF409162028D3E59F4809163025D
:102C100087FF0DC01092630241110BC010925E023B
:102C200008C08E3E81F48091630218169CF3442301
:102C300081F08091640290916502892B09F05AC05D
:102C400010925D0208958F3E49F447FFF0CF109235
:102C50006202809163028111ECCFE0CF803F19F4D2
:102C60001416ACF3E4CF90916402893F29F419164D
:102C7000F4F610926402DBCF8A3F19F497FFD7CFA6
:102C8000F8CF909165028B3F29F497FFD0CF109237
:102C90006502CDCF8C3F19F41916CCF3C8CF9FE055
:102CA000980F983090F4815F990B21E030E0B901E2
:102CB00002C0660F771F8A95E2F7CB01809590914D
:102CC0006102892380936102B2CF8D3F31F48091FC
:102CD0005F028E7F80935F02AACF8E3F21F48091A6
:102CE0005F028D7FF7CF8F3F09F0A1CF80915F0208
:102CF0008B7FF0CF08950E94141E209162023091C4
:102D00006302232B21F080935B0290935C0220915D
:102D1000640230916502232B21F080935902909335
:102D20005A0280E692E00E94D01C089586E0E0E618
:102D3000F2E0DF011D928A95E9F710925E0210928F
:102D40005D0210925F020895FC01828181110DC025
:102D5000838181110AC08481811107C081E095813E
:102D6000911101C080E08170089581E0FCCFA6E060
:102D7000B0E0EDEBF6E10C949D2586E0E0E6F2E0B4
:102D8000DE01119601900D928A95E1F71092620290
:102D90001092630210926402109265028B819C81F2
:102DA000892B89F080915B0290915C020E943D1E0C
:102DB0009C0180915E028823C9F1909120019217B5
:102DC000130608F440C08D819E81892B91F080917B
:102DD000590290915A020E943D1E9C0180915D0211
:102DE000882309F471C090911D019217130608F40D
:102DF00079C0BE016F5F7F4F80E692E00E94651D43
:102E0000811105C080E692E00E94A41681110E9403
:102E10007B1686E0FE013196A0E6B2E001900D92AD
:102E20008A95E1F72696E3E00C94B9254091580283
:102E30009AE0499FA00111244217530720F68F5FA3
:102E400080935E0202C08F3FD1F71B81112359F09E
:102E50000E9431159FEF11160CF491E0899F802D8F
:102E60001124809362021C81112359F00E943115B4
:102E70009FEF11160CF491E0899F802D112480930F
:102E8000630230916202332309F49DCF20916302E3
:102E9000222309F498CF45EB3403C0011124992370
:102EA00059F09093620245EB2403900111243323DF
:102EB00039F03093630287CF81E080936202F3CFD1
:102EC00081E0809363027FCF409157029AE0499F4F
:102ED000A00111244217530708F08BCF8F5F809316
:102EE0005D0202C08F3FD1F71D81112359F00E946E
:102EF0006F159FEF11160CF491E0899F802D11241E
:102F0000809364021E81112359F00E946F159FEF78
:102F100011160CF491E0899F802D11248093650295
:102F200030916402332309F464CF20916502222397
:102F300009F45FCF45EB3403C0011124992359F004
:102F40009093640245EB240390011124332339F05C
:102F5000309365024ECF81E080936402F3CF81E02D
:102F60008093650246CF0895FC01680F791F8FEFAB
:102F700091E36E177F0709F408952191822728E0D5
:102F800030E087FF06C0880F892721503109C9F733
:102F9000F0CF880FFACFCF93DF93EC01FB01828152
:102FA000882309F4F2C0C236FDE5DF0749F048F591
:102FB000C631ECE5DE07E0F4C230FCE5DF07F0F0F7
:102FC0000E94760D9093890280938802C631ECE5C9
:102FD000DE0748F5C230FCE5DF07C0F480918802C7
:102FE000909189020E94840D0E94D60680E006C05E
:102FF0009E012B5F3C452930310510F3DF91CF91C5
:103000000895C63A9DE5D907C9F7DACFFE01E35026
:10301000FC45809188028160E331F10528F5E15C8F
:10302000F94D0C948825C4308DE5D80770F4CB3F5A
:103030009CE5D90798F2FE01EC5FFC45E830F1050C
:1030400010F5EE5AF94D0C948825C236EDE5DE07F1
:1030500009F494C090918802892F8E7F90FF81603F
:10306000C63ADD4509F0BACF80938802B7CF809188
:1030700088028260F9CF809188028460F5CF8091C8
:1030800088028860F1CF80918902816080938902F3
:10309000A5CF809189028260F9CF809188028061FA
:1030A000E3CF809188028062DFCF809188028064C4
:1030B000DBCF0E94D606809188028068D5CF8091B0
:1030C00088028C60D1CF809189028360DFCF8091AC
:1030D00088028E7FC9CF809188028D7FC5CF809175
:1030E00088028B7FC1CF80918802877FBDCF80917E
:1030F00089028E7FCBCF809189028D7FC7CF80914F
:1031000088028F7EB1CF809188028F7DADCF809174
:1031100088028F7BA9CF0E94D606809188028F7784
:10312000A3CF80918802837F9FCF809189028C7F7B
:10313000ADCF8091880282FB992790F921E09227F8
:1031400090FB82F990FB83F98FCF80918902982FB1
:10315000909591708E7F892B90FB81F997CF0E947B
:10316000D60690918802892F97FB87F980587CCFEB
:1031700081E00E94110E32CF80E0FBCF9091880257
:10318000892F8F7E94FF80616FCF81E037CFA4E0DD
:10319000B0E0EDECF8E10C949C2541E050E060E0FB
:1031A00070E08A019B0104C0000F111F221F331F12
:1031B0008A95D2F7C901B8010E9427070E94D60656
:1031C0002496E4E00C94B8258B3258F48530C0F096
:1031D000EBEFE80FE632A0F4F0E0E65AF94D0C947C
:1031E0008825833450F48A3308F051C0853309F4BC
:1031F0004AC0883329F481E00895833409F443C038
:1032000080E008950E940E0EF6CF80913102807FFB
:103210008093310281E08093690208950E945802F0
:10322000EACF90913102892F8E7F90FF8160809349
:10323000310280FDE0CF817F80933102DCCF90911D
:103240003102892F8D7F91FF82608093310281FF4F
:10325000D2CF809131028160EFCF90913102892FDE
:103260008B7F92FF84608093310282FDF2CFC3CFC7
:1032700090913102892F877F93FF8860809331027C
:1032800083FDE7CFB8CF80E00E94C718B4CF895341
:10329000FBCF8D51F9CF80E008950E944B1908951E
:1032A000CF93C82F809169028130A1F08230A1F1C3
:1032B0008111ABC00E94780C823209F0A8C08C2F1B
:1032C0000E944B1981111BC08C2F0E94E418817041
:1032D000CF9108950E94780C823289F38C2F0E943E
:1032E0004D1981110AC0C431A1F060F4CB3029F02E
:1032F000C03169F782E08093690281E0E8CF81E024
:1033000090E0E5CFC93229F081E0C83301F380E0D5
:10331000DECF10926902FBCFCF3409F46EC0C0F447
:10332000C83248F4CE3188F5C73009F455C0C431ED
:1033300021F081E0CDCFC932E1F780916802882386
:10334000C1F3109268021092670210926602F1CFE8
:10335000C13509F454C081E0C23519F086EFC0359B
:1033600041F7E0916602F0916702309711F32081F6
:10337000082E000C990B820F911D8F3F910509F0CB
:103380000CF43FC08FEF8083D4CFCD51C09368023F
:10339000C430E1F068F4C230B1F08FE191E0C330A5
:1033A00069F088E592E0C13049F010926802C1CF1F
:1033B000C53079F08BE191E0C630B9F790936702A0
:1033C00080936602B6CF80E291E0F8CF8EE191E083
:1033D000F5CF8CE191E0F2CF1092580284E1809316
:1033E0002001C0931F018CE380931E0188E080932D
:1033F0001C0188E280931B019CCF8AE0B2CF8FEF43
:10340000B0CF97FFC0CF108294CF1092690280E0B6
:103410005FCFCF93DF93EB0186319C4511F50E947E
:10342000780C9A81992399F08A7A91E009F490E0D6
:1034300090936A02811109C089E20E94500C0E9497
:10344000BB0C80E0DF91CF91089585E3F6CF8091AA
:103450006A02811104C089E20E94580CF0CF85E312
:10346000FBCF81E0EFCF0F931F93CF93DF93C42F58
:10347000D22FFC0182818823C9F040936D020E9403
:10348000141E90936C0280936B0280E28C0F883044
:1034900040F4C77081E001C0880FCA95EAF70E9426
:1034A0003204DF91CF911F910F91089510916D0219
:1034B000141332C080916B0290916C020E943D1EE9
:1034C000883C910548F5C0E2CD0F1D17B9F080E2A8
:1034D000810F883040F4177081E001C0880F1A9581
:1034E000EAF70E943904C83048F481E09D2F9770B4
:1034F00001C0880F9A95EAF70E943204802F0E943B
:103500002904C83070F6D77081E001C0880FDA95C1
:10351000EAF70E943904C5CF80E28C0F883008F6A4
:10352000C77081E001C0880FCA95EAF7F2CF0F9308
:103530009C01CB01243F4CE53407A1F190F4293DD7
:10354000FCE53F0749F12A3D4CE53407E9F1283D08
:103550003C45C1F0FC0182818823E1F110926D02AB
:1035600019C0263FFCE53F0719F1273F4CE534071A
:1035700029F1253F3C4571F707E225EE44EE65EF62
:103580007CE505C006E221EE41EE68ED7CE50E9497
:10359000331A80E00F91089507E225EE45EE69EDBC
:1035A0007CE5F5CF06E221EE40EE64EF7CE5EFCF5F
:1035B00006E221EE42EE66EF7CE5E9CF07E225EE7A
:1035C00046EE67EF7CE5E3CF08E221E045EE6AEDE9
:1035D0007CE5DDCF81E0DECF8EE1489B02C08150EB
:1035E000E1F7489BFECF0895589880E28A95F1F75D
:1035F000589A0895FC013BE03A95F1F798E020E0F5
:1036000080E031E040E14A95F1F7880F489B02C025
:103610008160232742E04A95F1F7000040E14A9596
:10362000F1F7915079F790E19A95F1F799B132E07D
:103630003A95F1F7000040E14A95F1F79170922731
:103640002081920F90830895A1E0B0E0EAE2FBE1CF
:103650000C949A2519828C017C01E60EF11C0E1542
:103660001F0541F481E09981911180E02196E6E007
:103670000C94B6250E94EC1ACE0101960E94FA1A0B
:10368000F80181938F01EBCF509A589A0895509882
:10369000589AE89AE9E6F0E080818C7F808308956B
:1036A0006150770B91E001C0990F6A95EAF720E02D
:1036B00031E0911108C0222391F0589A80E28A9556
:1036C000F1F758980895492F482339F0589A23273D
:1036D00040E24A95F1F79695ECCF5898F9CF589873
:1036E000EDCFFF920F931F93CF93DF93EC018C01EB
:1036F000060F111DC017D10729F4CDB7DEB7E5E0DD
:103700000C94B725F9900E94F41A68E08F2D0E945E
:10371000501BF0CF1F920F920FB60F9211240F93F0
:103720001F932F933F934F935F936F937F938F9349
:103730009F93AF93BF93EF93FF93CF93DF930F923A
:10374000CDB7DEB719820E94EC1ACE0101960E9415
:10375000FA1A282F082F069506950695982F929508
:103760009570802F8570980F892F83709695969508
:10377000890F822787709981892B09F05CC00430FA
:1037800008F059C080E18A95F1F7589A509A82E082
:103790008A95F1F700C0589888E0089F80011124AD
:1037A000D801AD5FBE4F1696ED91FC9117973097FB
:1037B000A9F0609196017091970114962D913C911A
:1037C0001597260F371F11968D919C911297680FB0
:1037D000791F13964C9113978C910995F801ED5F21
:1037E000FE4F6381662351F020919601309197013D
:1037F00084819581820F931F0E94711B0E94F41A8D
:1038000080E18A95F1F758985098589A80E18A9506
:10381000F1F7F801ED5FFE4F6081662351F02091D2
:1038200096013091970181819281820F931F0E94AE
:10383000241B0E94EC1A0F90DF91CF91FF91EF9122
:10384000BF91AF919F918F917F916F915F914F91B8
:103850003F912F911F910F910F900FBE0F901F90CE
:1038600018950F931F93CF93DF93EC0104970CF0FF
:103870004CC0F894509A589885E08A95F1F700006A
:103880008C2F869585709C2F9570890F982F93703B
:103890008695869523E0CC0FDD1F2A95E1F7890FE9
:1038A0008E01082B0E94F41A00C068E0802F0E944D
:1038B000501B80E18A95F1F75098589A489B1EC09A
:1038C00087E090E048991CC0FE01ED5FFE4F6381E8
:1038D0006623F9F0209196013091970184819581BA
:1038E000820F931F0E94241B811113C0509A589A73
:1038F0007894DF91CF911F910F91089500C0DECF92
:10390000019729F4509A589A789480E0F2CF00C039
:10391000D9CF0E94EC1A80E28A95F1F75898509A14
:1039200080E18A95F1F7CD5FDE4F6881662351F023
:10393000209196013091970189819A81820F931F7E
:103940000E94711B0E94F41A789481E0D2CF909368
:103950009901809398010895909374028093730263
:1039600008950E940B13811103C080916E02089587
:10397000E0917302F0917402309729F00190F08188
:10398000E02D0995089580E00895E0917302F0918B
:103990007402309721F00280F381E02D099508959B
:1039A000DC01E0917302F0917402309739F082E00B
:1039B0008C930480F581E02DCD0109950895209127
:1039C0007102309172022817390771F090937202D8
:1039D00080937102E0917302F0917402309721F0AC
:1039E0000680F781E02D0995089520916F023091AE
:1039F00070022817390771F09093700280936F025C
:103A0000E0917302F0917402309721F00084F18507
:103A1000E02D09950895AC019C012E5F3F4F485F52
:103A20005F4F80E02417350709F40895F90191915B
:103A30009F019923B9F38F5FF5CF9C01662351F065
:103A4000FC013296285F3F4F8191861729F0E217DB
:103A5000F307D1F780E0089581E008959C01FC010F
:103A600032968FEF90E04191461751F08F3F19F455
:103A7000411101C0892F9F5F9630A9F78F3F09F44C
:103A80000895280F311D87FD3A95F9016283089545
:103A90009C01FC013296285F3F4F8191861303C041
:103AA000DF0111971C92E217F307B9F708950E94FE
:103AB0002E1D08950E94481D0895FC01329686E04F
:103AC000DF011D928A95E9F7089546E050E00E94D3
:103AD000D9259C0181E0232B09F480E00895089505
:103AE0000E946F1D0895811106C081E080937502C8
:103AF0000E94701D089582E0F9CF83E080937502E3
:103B00000E94701D08950E94731D089581E08093A6
:103B100075020E94701D08950E94861D08950895E3
:103B200008950E94901D0895089508950E948F1D84
:103B30000895CF930E94941D0E948E120E94951D9D
:103B4000C0E08C2F0E945C11811105C0CF5FCC308A
:103B5000C1F7CF91089581E0FCCF85B7806885BF1C
:103B600085B7806885BF08951F921FB61F921124E4
:103B70008F939F93AF93BF9380917602811113C06F
:103B80008091A4029091A502A091A602B091A702F3
:103B90004196A11DB11D8093A4029093A502A0930C
:103BA000A602B093A702BF91AF919F918F911F90F2
:103BB0001FBE1F9018958091AC02843031F10E9495
:103BC000B8021092760288E190E020E40FB6F894F3
:103BD000A895809360000FBE2093600083B7817F1B
:103BE000846083BF83B7816083BF7894889583B7EF
:103BF0008E7F83BF0FB6F894A8958091600088618E
:103C000080936000109260000FBE08950E94D60657
:103C10000E94BD02089582E084BD93E095BD9AEFB5
:103C200097BD80936E0008952FB7F8948091A402F9
:103C30009091A502A091A602B091A7022FBF08956E
:103C4000A4E0B0E0E6E2FEE10C949E258FB7F89484
:103C50002091A4023091A5024091A6025091A702A2
:103C600029833A834B835C838FBF69817A818B81FF
:103C70009C812496E2E00C94BA259C014FB7F894FD
:103C80008091A4029091A502A091A602B091A702F2
:103C90004FBF821B930B0895A4E0B0E0E2E5FEE184
:103CA0000C949C25462F572FBC012FB7F894809178
:103CB000A4029091A502A091A602B091A7022FBFE5
:103CC0008C019D01041B150B260B370BC901B80194
:103CD0002496E4E00C94B82578941F921FB61F92A6
:103CE00011248F939F93AF93BF938091A4029091DF
:103CF000A502A091A602B091A7020196A11DB11D37
:103D00008093A4029093A502A093A602B093A70269
:103D1000BF91AF919F918F911F901FBE1F901895DB
:103D200087E797E7909301088093000888E19AE07D
:103D30000FB6F894A895809360000FBE9093600032
:103D4000FFCF88E19AE00FB6F894A89580936000C1
:103D50000FBE90936000FFCF809182020895089576
:103D600022E02093E9002FEF3091E800215035FD4B
:103D700006C035ED3A95F1F700002111F5CF2091FD
:103D8000E80025FF0BC050E040E066E070E00E94D4
:103D9000E4208091E8008E778093E8000895CF9327
:103DA000DF93D82FC92F81E08093E9008FEF9091A6
:103DB000E800815095FD06C095ED9A95F1F7000059
:103DC0008111F5CF8091E80085FF16C050E040E0FA
:103DD00068E070E08D2F9C2F0E94E4208091E80025
:103DE0008E778093E80088E0ED2FFC2FAAE7B2E001
:103DF00001900D928A95E1F7DF91CF91089580931C
:103E0000770270937902609378028091AC028430DB
:103E100001F582E08093E9008FEF9091E8008150F6
:103E200095FD06C095ED9A95F1F700008111F5CF4B
:103E30008091E80085FF0DC050E040E063E070E055
:103E400087E792E00E94E4208091E8008E778093DB
:103E5000E8000895BC0184E00E94FF1E0895BC01A3
:103E600083E00E94FF1E08958091AB02811109C07A
:103E70000E946C220E94C9228091E200846080939B
:103E8000E20008951092AB0208950E94861D0895E5
:103E90006091A80281E0611101C080E00E947D1D57
:103EA00008959091AC0281E0943009F080E0609137
:103EB000A8020E94831D089542E061EC81E00E9407
:103EC000E82142E261EC82E00E94E8219091AC029C
:103ED00081E0943009F080E06091A8020E94731D97
:103EE00008958091AE02893089F148F4823009F456
:103EF000A0C0833009F45AC0813041F008958A305F
:103F000009F487C08B3009F46CC008958091AD022C
:103F1000813A09F04AC08091E800877F8093E800E9
:103F20008091B1029091B202892B61F468E08AE736
:103F300092E070E00E9433218091E8008B778093BB
:103F4000E800089560E090E080E0F3CF8091AD025A
:103F5000813259F58091B1029091B202029728F511
:103F60008091E800877F8093E8008091E80082FFDD
:103F700018C09091F3008091F200029731F4809183
:103F8000F100813011F0863021F48091F1008093AE
:103F900082028091E8008B778093E8000E941C22C7
:103FA00004C08091AC028111E0CF08958091AD02F0
:103FB000813AD9F78091B1029091B202892BA9F789
:103FC0008091E800877F8093E8008091E80080FF7F
:103FD000FCCF80912D018093F1008091E8008E77D5
:103FE000DBCF8091AD02813201F78091B1029091D7
:103FF000B202892BD1F68091E800877F8093E80098
:104000000E941C228091AF0280932D010E94D6064F
:1040100008958091AD02813241F68091E800877F5A
:104020008093E8000E941C228091B002809383025A
:1040300008958091AD02813A09F0B7CF8091E800F0
:10404000877F8093E8008091E80080FFFCCF80911B
:104050008302C1CF84B7877F84BF0FB6F894A89539
:1040600080916000886180936000109260000FBEB4
:1040700080E890E00FB6F89480936100909361001F
:104080000FBE0E948C1D08950E946C220E94C922BE
:10409000E2EEF0E080818460808378940E9447257E
:1040A000089581E291E00E94AC1C08958091AC02D9
:1040B000853031F48091AC02853019F00E94061EE3
:1040C00008950E94DB1D8091AA02882399F30E9423
:1040D000991D882379F30E94CE200E94D606EACF4C
:1040E00008950E9474200895FC01CB01DA012F2F5E
:1040F000332723303105D1F070F42130310509F434
:104100003EC02230310569F48BE390E02EE932E0C5
:104110002D933C93089521323105E9F02232310587
:1041200021F190E080E030E020E0F2CFCF0199274C
:10413000E13059F08230910559F0EAE9F2E0892B3B
:1041400081F7849190E09F01E3CFEAE8F2E0F9CFB4
:10415000ECE5F2E0F6CF892BB9F06130710509F793
:1041600089E090E029EC32E0D3CF892B91F06130E7
:104170007105B9F68BE790E02BEE32E0C9CF82E112
:1041800090E029ED32E0C4CF89E090E020EB32E00E
:10419000BFCF80E490E026E633E0BACF80E189BD6E
:1041A00082E189BD09B400FEFDCF8091D8008F7DEA
:1041B0008093D8008091E00082608093E00080913D
:1041C000E00081FDFCCF0895AF92BF92CF92DF92C5
:1041D000FF920F931F93CF93DF936C01EB018A0142
:1041E0000E943B22F82E811123C00115110539F0E0
:1041F000F80180819181C81BD90BC80ED91EB12C42
:10420000A12C2097A9F08091E80085FD22C0809123
:10421000E8008E778093E80001151105A1F0F80100
:1042200080819181A80EB91EB182A08285E0F82E0E
:104230008F2DDF91CF911F910F91FF90DF90CF9045
:10424000BF90AF9008950E943B228823D1F2F82EB0
:10425000EFCFF60181916F018093F1002197FFEF7D
:10426000AF1ABF0ACECFFC01CB012091B30230912F
:10427000B4022617370790F0009729F42091E80040
:104280002E772093E80040E0009751F4411108C0D8
:104290008091E80082FF31C080E00895C901F3CF2A
:1042A0002091AC022223A9F12530A9F12091E80048
:1042B00023FD2DC02091E80022FDEACF2091E800E7
:1042C00020FFE2CF3091F3002091F200009719F027
:1042D0002830310558F041E02830310509F040E040
:1042E0002091E8002E772093E800CECF41914093B3
:1042F000F10001972F5F3F4FE9CF8091AC028823F7
:1043000041F0853041F08091E80083FFC1CF81E02A
:10431000089582E0089583E00895FC01CB01209187
:10432000B3023091B4022617370790F0009729F4B2
:104330002091E8002E772093E80040E0009751F4A8
:10434000411108C08091E80082FF32C080E00895EA
:10435000C901F3CF2091AC022223B1F12530B1F194
:104360002091E80023FD2EC02091E80022FDEACF35
:104370002091E80020FFE2CF3091F3002091F2007D
:10438000009719F02830310558F041E02830310508
:1043900009F040E02091E8002E772093E800CECF8E
:1043A00044914093F100319601972F5F3F4FE8CF42
:1043B0008091AC02882341F0853041F08091E80083
:1043C00083FFC0CF81E0089582E0089583E00895DF
:1043D000982F973028F08F708093E90081E008953E
:1043E0009093E900242F762F50E0981731F07091C8
:1043F000EC002091ED005091F00021FD02C09F5F84
:10440000E8CF3091EB003E7F3093EB003091ED0030
:104410003D7F3093ED003091EB0031603093EB0045
:104420007093EC002093ED005093F0002091EE008B
:1044300027FDE5CF80E008958091AD0287FF13C08E
:104440008091E80082FF06C08091E8008B7780931E
:10445000E80004C08091AC028111F2CF08958091F0
:10446000AC028823D9F38091E80080FFF8CF8091D7
:10447000E8008E77ECCF2091E4003091E50095E6DE
:10448000A9012091EC00822F817020FF06C080914D
:10449000E80080FF06C080E008952091E80022FD3A
:1044A0001AC08091AC02882389F0853089F0809110
:1044B000EB0085FD0FC02091E4003091E50042172C
:1044C0005307F9F29150E1F684E0089582E00895EF
:1044D00083E0089581E008950E94DB220E94E32298
:1044E000E0EEF0E0808181608083E8EDF0E08081A3
:1044F0008F77808319BCA7EDB0E08C918E7F8C9371
:1045000080818F7E80831092AB0208950F931F935A
:10451000CF93DF930E94DB220E94E322C8EDD0E01C
:1045200088818F77888388818068888388818F7D60
:10453000888319BC1092AC021092A8021092AA02B1
:104540001092A90200EE10E0F80180818B7F808339
:1045500088818160888342E060E080E00E94E821F9
:10456000E1EEF0E080818E7F8083E2EEF0E08081FA
:1045700081608083808188608083F80180818E7F64
:104580008083888180618883DF91CF911F910F9113
:104590000895E8EDF0E080818F7E8083E7EDF0E024
:1045A00080818160808384E082BF81E08093AB0260
:1045B0000E9486220895E8EDF0E080818E7F80835E
:1045C0001092E20008951092DA001092E10008952E
:1045D0001F920F920FB60F9211242F933F934F9378
:1045E0005F936F937F938F939F93AF93BF93EF935B
:1045F000FF938091E10082FF0BC08091E20082FF77
:1046000007C08091E1008B7F8093E1000E944625E6
:104610008091DA0080FF19C08091D80080FF15C01A
:104620008091DA008E7F8093DA008091D90080FF3C
:1046300094C080E189BD82E189BD09B400FEFDCF4F
:1046400081E08093AC020E94341F8091E10080FFE2
:1046500019C08091E20080FF15C08091E2008E7F3A
:104660008093E2008091E20080618093E20080917B
:10467000D80080628093D80019BC85E08093AC029A
:104680000E94481F8091E10084FF29C08091E200D0
:1046900084FF25C080E189BD82E189BD09B400FEA7
:1046A000FDCF8091D8008F7D8093D8008091E1006C
:1046B0008F7E8093E1008091E2008F7E8093E20004
:1046C0008091E20081608093E2008091A8028823BB
:1046D00009F449C084E08093AC020E94511F80918C
:1046E000E10083FF29C08091E20083FF25C0809113
:1046F000E100877F8093E10082E08093AC0210921A
:10470000A8028091E1008E7F8093E1008091E20019
:104710008E7F8093E2008091E20080618093E200CE
:1047200042E060E080E00E94E8218091F000886033
:104730008093F0000E94451FFF91EF91BF91AF91D0
:104740009F918F917F916F915F914F913F912F91A9
:104750000F900FBE0F901F90189519BC1092AC02CD
:104760000E94421F72CF8091E30087FD02C081E06A
:10477000B2CF83E0B0CF1F920F920FB60F921124E9
:104780002F933F934F935F936F937F938F939F9359
:10479000AF93BF93CF93DF93EF93FF93D091E90053
:1047A000DF708091EC00C82FC17080FDC0E81092CE
:1047B000E9008091F000877F8093F00078940E9458
:1047C000FF231092E9008091F00088608093F00050
:1047D000CD2BCF70C093E900FF91EF91DF91CF9186
:1047E000BF91AF919F918F917F916F915F914F9109
:1047F0003F912F910F900FBE0F901F901895AAE236
:10480000B0E0E5E0F4E20C949D258DEA92E0FC0135
:1048100001962091F100208322E0853B9207B9F7B1
:104820000E94711F8091E80083FF1EC18091AD023C
:104830009091AE029A3008F017C1E92FF0E0E058ED
:10484000F94D0C948825803899F0823809F00CC114
:104850008091B1028F70873008F006C18093E90023
:104860008091EB0085FB882780F91092E90006C053
:104870008091A9029091AA02911182609091E80022
:10488000977F9093E8008093F1001092F10080915F
:10489000E8008E77E5C0882309F4D3C0823009F0A0
:1048A000E3C08091AF028111D6C08091B1028F70B8
:1048B0002FEF280F263008F0D7C08093E900209111
:1048C000EB0020FFC8C0933031F48091EB00806290
:1048D0008093EB00C0C09091EB0090619093EB004F
:1048E00021E030E001C0220F8A95EAF72093EA0028
:1048F0001092EA008091EB008860EACF8111B4C089
:104900001091AF021F778091E3008078812B809314
:10491000E3008091E800877F8093E8000E941C22DA
:104920008091E80080FFFCCF8091E3008068809355
:10493000E30082E0111183E08093AC0295C08058BF
:10494000823008F091C08091AF029091B0028C3D0E
:1049500023E09207A1F583E08A838AE289834FB737
:10496000F894DE01139620E03EE051E2E32FF0E000
:1049700050935700E49120FF03C0E295EF703F5F32
:10498000EF708E2F90E0EA30C0F0C7968D939D9324
:104990002F5F243159F74FBF8091E800877F8093C4
:1049A000E8006AE270E0CE0101960E943321809116
:1049B000E8008B778093E80057C0C096E7CF6091FE
:1049C000B1027091B202AE014F5F5F4F0E94712041
:1049D000BC01892B09F448C08091E800877F80934F
:1049E000E80089819A810E948D21E1CF8038E1F52C
:1049F0008091E800877F8093E8008091A8028093EF
:104A0000F10045CF811130C09091AF02923060F536
:104A10008091E800877F8093E8009093A8020E942D
:104A20001C228091A802882311F084E005C08091A7
:104A3000E30087FDFACF81E08093AC020E945C1F07
:104A400013C08091AF02813079F481E0933009F096
:104A500080E08093AA021092E9008091E800877FAD
:104A60008093E8000E941C228091E80083FF0AC026
:104A70008091E800877F8093E8008091EB0080625E
:104A80008093EB00AA96E3E00C94B9250895CF93A8
:104A90008091AC028823A1F0C091E900CF70909181
:104AA000EC00892F817090FD80E8C82B1092E900FE
:104AB0008091E80083FD0E94FF23CF70C093E9003E
:104AC000CF9108950E946C221092AC020895E8EDF7
:104AD000F0E08081806180838AE18A95F1F700C0EF
:104AE0008091D9008170089597FB072E16F40094E9
:104AF00007D077FD09D00E94C52507FC05D03EF4FC
:104B0000909581959F4F0895709561957F4F089579
:104B1000EE0FFF1F0590F491E02D09942F923F9224
:104B20004F925F926F927F928F929F92AF92BF92BD
:104B3000CF92DF92EF92FF920F931F93CF93DF9369
:104B4000CDB7DEB7CA1BDB0B0FB6F894DEBF0FBEC6
:104B5000CDBF09942A88398848885F846E847D8413
:104B60008C849B84AA84B984C884DF80EE80FD8015
:104B70000C811B81AA81B981CE0FD11D0FB6F8948B
:104B8000DEBF0FBECDBFED010895AA1BBB1B51E1D7
:104B900007C0AA1FBB1FA617B70710F0A61BB70BAD
:104BA000881F991F5A95A9F780959095BC01CD0152
:104BB0000895FB01DC0104C08D910190801921F45E
:104BC00041505040C8F7881B990B0895FB01DC0148
:104BD00002C001900D9241505040D8F70895F999C4
:104BE000FECF92BD81BDF89A992780B50895A8E1BE
:104BF000B0E042E050E00C942326262FF999FECF36
:104C000092BD81BDF89A019700B4021639F01FBA1F
:104C100020BD0FB6F894FA9AF99A0FBE089503963C
:104C2000272F0E94FE250E94FD25252F0E94FE258C
:104C3000242F0C94FE250196272F0E94FE250C940C
:104C4000FD25DC01CB01FC01F999FECF06C0F2BDC8
:104C5000E1BDF89A319600B40D9241505040B8F73A
:104C60000895F894FFCF7A047A04AE04AE044005A8
:104C70005C05DF04DF0467051106220622063718EB
:104C80003B183F184D185118551859185F186718D8
:104C90006B186F1873187F18831887188B18911862
:104CA000AF189918491877187B1863189518A51824
:104CB000B818BC180E1905191119FB18001900199C
:104CC000FB18001900192D190019381900190019BD
:104CD000001900190019FB1800190019FB18001918
:104CE0001F19001900194919491949194919491970
:104CF0004919491949194919431900190E19021975
:104D000023244B2434254B2434257E249F2434250E
:044D1000F62402255E
:104D14001302010000000100000000000000060171
:104D240000000004070000000000002808503C07B1
:104D340014AC1ECF1EB01E2F1F2A1FAF1E01E2008F
:104D4400E900EA00B500B600B700CD008301CC004D
:104D54008A019201940121022302240225022602DF
:104D640027022A02B300B4006F007000E200E900D9
:104D7400EA00B500B600B700CD008301CC008A017B
:104D84009201940121022302240225022602270211
:104D94002A02B300B4006F007000946697C63435DD
:084DA400F6F7313332363A0212
:00000001FF
